:400000000040002011000000456400004564000008B5044B1A6803F53F5302331A6006F031FA00BFFA46004010B5054C237833B9044B13B10448AFF300800123237010BD34
:4000400038C9FF1F000000007CA90000084B10B51BB108490848AFF300800848036803B910BD074B002BFBD0BDE81040184700BF000000003CC9FF1F7CA90000C8C0FF1F08
:400080000000000030B40C68630A074AA2FB0323DA09064D05FB1242046804EBD31303600A6030BC704700BF834B040000CA9A3B43680B7043681B0A4B70C3888B70C379C9
:4000C000CB7083680B7183681B0A4B7143898B71C37ACB71082070470B7843604A7843EA022343608A7843EA02434360CA7843EA026343600B7983604A7943EA02238360A8
:400100008A7943EA02438360CA7943EA02638360082070470048704720AB00000048704730AB000070B40B7883804A7843EA0223838000242346032B06D8CA189278DD0009
:40014000AA4014430133F6E70623A21D934204D25A1ECD5C8D540133F7E7053400230B554C1D84601E46032B06D8CC18A45CDD00AC4026430133F6E7141D2346A21993423C
:4001800004D25A1ECD5C8D540133F7E7551E00234B55013C0C44C4601E46032B06D8CC18A45CDD00AC4026430133F6E7043213469419A34204D25C1ECD5C0D550133F7E749
:4001C000631E0025CD54013A0A4402610B5D621C8A5C43EA0223A21C8A5C43EA0243E21C8A5C43EA02634361201D70BC704700BF0048704754AB00000048704770AB000007
:4002000070B406460B78037100221346032B07D8581C0C5CDB0004FA03F31A430346F5E70523501D834204D25C1ECD5C0D550133F7E7043200238B540431B16070BC7047FA
:400240000048704794AB000000487047A8AB00000048704704AB000000487047CCAB000070B406460B7843604A7843EA022343608A7843EA02434360CA7843EA02634360EF
:400280000B7983604A7943EA022383608A7943EA02438360CA7943EA026383600B7AC3604A7A43EA0223C3608A7A43EA0243C360CA7A43EA0263C36000221346032B06D8D5
:4002C000C818047BD800844022430133F6E7102302F11000834204D25C1ECD5C0D550133F6E70F3200238B540F31316170BC704700487047F0AB00000048704700AC000069
:4003000090F904300B700120704700BF0B780371012070470048704724AC00000048704734AC000003790B70012070470B780371012070470048704758AC000000487047D1
:4003400068AC000030B400221346032B05D8CC5CDD00AC4022430133F7E70423141DA34204D25C1ECD5C0D550133F7E7D31C0025CD54CB1C43600B5D8360541D0C5D43EA5C
:4003800004238360941D0C5D43EA04438360D41D0C5D43EA0463836002F10803CB5CC36002F109040C5D43EA0423C36002F10A040C5D43EA0443C36002F10B04095D43EA33
:4003C0000163C36002F10C0030BC7047004870478CAC000000487047ACAC0000F8B506460F4643680B7043681B0A4B70C3888B70C379CB700024042573689C4209D2B06990
:400400002301C258126879191844904705440134F2E7F3697B556A1CF3691B0ABB54AB1CF28BFA54EB1CF27FFA54281DF8BD00BF00487047D0AC000000487047ECAC000083
:400440000048704710AD0000004870472CAD00000048704750AD0000004870476CAD00000048704790AD000000487047A8AD000000487047CCAD000000487047DCAD000044
:400480000279014B1A707047D1D5FF1F436A032B0AD1C26AB2F90010044B1980B2F902105980B2F904209A80704700BFCCC0FF1F012840F0F6804FF6FF73994240F0F1804A
:4004C000F0B5784B784AC3F8B820784AC3F870290022C3F87429C3F87829C3F87C29C3F880290021C3F88419C3F88829C3F88C29C3F89029C3F894296D48C3F898096D4888
:40050000C3F8A40983F8A8296B48C3F8AC090127C3F8B0796948C3F8A009DFF8D8E1C3F8B4E9674EC3F8C069664DC3F8C459C3F8C829654CC3F8CC496448C3F8D009C3F88F
:40054000D429C3F8D829C3F8DC29C3F8E029C3F8E429A3F8E829C3F8EC29DFF89CC1C3F8F0C9C3F8F479DFF894C1C3F8BCC9C3F8F8E9C3F8046AC3F8085AC3F80C2AC3F830
:40058000104AC3F8140AC3F8182AC3F81C2AC3F8202AC3F8242AC3F8282AA3F82C2AC3F8302ADFF85CE1C3F834EAC3F8387A484FC3F8007A474FC3F83C7A83F8402A464F42
:4005C000C3F8447A03F63C27C3F8487AC3F8542AC3F8586AC3F85C5AC3F8602AC3F8644AC3F8680AC3F86C2AC3F8702AC3F8742AC3F8782AC3F87C2AA3F8802AC3F8842A3C
:40060000364CC3F8884A03F65824C3F88C4AC3F8982A334C1C60334C5C609A60DA601A615861314A9A61D96119625962996208222C33B2F1FF3F04D0002143F8041B013AB5
:40064000F7E7184A294B1365002353659365D36508236032B3F1FF3F04D0002142F8041B013BF7E70F4A214BC2F884300023C2F88830C2F88C30C2F8903008239432B3F1EF
:40068000FF3F04D0002142F8041B013BF7E7054B174AC3F89C2AC3F8A03A0022C3F8AC2AF0BD704754C9FF1FC8AA0000D8A90000DCAA000020AA00008104000000AE000005
:4006C00068AA000050AA000038AA0000C8AE000028AE000008AA000038AE00004CAE0000B0AA0000F0A9000080AA000098AA000060AE0000F4AA00004507000018AE000011
:400700008D040000006C70470048704710AD0000004870472CAD000008B50B78037443690C30984708BD00BF806970470048704758AC00000048704768AC000090F8A40885
:40074000704700BF10B5044603F0C0F9174B1860636A022B28D1E36AB3F90020B2F5FA6F04DD4FF4FA61124A118009E0B2F57A7F04DA4FF47A710E4A118001E00C490A80A8
:40078000B3F90230B3F5FA6F04DD4FF4FA62084B5A8010BDB3F57A7F04DA4FF47A72044B5A8010BD024A538010BD00BFD4D5FF1FD4C0FF1FF8B506460D4683880B7083882B
:4007C0001B0A4B70806809F0D9FB04460023032B06D8991CDA0024FA02F26A540133F6E72246B168A81D09F013F90634F06809F0C5FB07460023032B06D8E118DA0027FA75
:4008000002F26A540133F6E704343A46F168281909F0FEF83C44306909F0B0FB07460023032B06D8E118DA0027FA02F26A540133F6E704343A463169281909F0E9F8381906
:4008400073692B54421C190AA954821C190CA954C21C1B0EAB540430F8BD00BF70B506460D4603790B70806809F088FB04460023032B06D85A1CDB0024FA03F3AB541346DC
:40088000F6E72246B168681D09F0C2F8601D70BD2DE9F84306460D4643680B7043681B0A4B70C3888B70C379CB700022042473689A420FD2F36853F822302B55611C180AA1
:4008C0006854A11C180C6854E11C1B0E6B5404340132ECE733692B55621C33691B0AAB54A31C728AEA54E31CF27CEA540434002233699A420FD2B36953F822302B55611C15
:40090000180A6854A11C180C6854E11C1B0E6B5404340132ECE7F3692B55621CF3691B0AAB54A31CF28BEA54E31CF27FEA5404344FF00008F36998451ED2736A4FEA8809C8
:4009400053F8280009F01AFB074620460023032B06D8C118DA0027FA02F26A540133F6E70434736A3A4653F80910281909F050F83C4408F10108DDE72046BDE8F88300BF77
:4009800070B506460D46406809F0F8FA04460023032B05D8DA0024FA02F2EA540133F7E722467168281D09F033F8231DB268EA54621DB3681B0AAB54A31D7289EA54E31D33
:4009C000F27AEA5404F10803F268EA5404F10902F3681B0AAB5404F10A03F289EA5404F10B03F27BEA5404F10C0070BD70B505460C4643680B7043681B0A4B70C3888B70E6
:400A0000C379CB7083680B7183681B0A4B7143898B71C37ACB71C3680B72C3681B0A4B72C3898B72C37BCB72006909F0A7FA06460023032B07D803F10C01DA0026FA02F2E4
:400A400062540133F5E73246296904F1100008F0DFFF06F1100070BD2DE9F04106460C460B784A7843EA02238D7843EA0543CD7843EA056543689D4204D9A900C06809F094
:400A80008BF8F06075600022042573689A4214D2635D691C615C43EA0123A91C615C43EA0143E91C615C43EA0163B3600435F368B16843F822100132E7E7635D6A1CA25C9B
:400AC00043EA0223AA1CA75C43EA0743EA1CA75C43EA0767043533699F4204D9B900B06909F05AF8B0613761002233699A4214D2635D691C615C43EA0123A91C615C43EAE5
:400B00000143E91C615C43EA016373610435B369716943F822100132E7E7635D6A1CA25C43EA0223AA1C14F8028043EA0843EA1C14F8028043EA08682F1DF369984505D9B7
:400B40004FEA8801706A09F027F87062C6F81C804FF0000EF3699E4523D23D4600221346032B06D86119C95CD80081400A430133F6E704373B46B818834204D2591EE55C95
:400B800065540133F7E7431E0022E254013F274437620746736A326A43F82E200EF1010ED8E73846BDE8F08130B585B0632903DD90F8A438002B51D00D46044613681B68EC
:400BC00000F21F4110469847FF2384F81834FE2384F81934C2B284F81A24C0F3072384F81B341344DB4384F81C3484F81D5445F3072384F81E3405230021C21D934205DA8A
:400C0000E21892F8182411440133F6E700F108052244144B0B40002B03DA013B63F0FF030133DB4382F81834B5F5806F06DCA9B204F5836005F08EFD284610E00A4B019356
:400C400003238DF80830094B039323681B6801AA0721204698474FF0FF3000E0002005B030BD00BFFF000080C0A900006CAE00002DE9F84305460E460B784A7843EA022329
:400C80008C7843EA0443CC7843EA046443689C4204D92101806908F07FFFA8616C604FF0000C04206B689C4561D205F1080E321800210B46032B05D8D45CDF00BC4021438F
:400CC0000133F7E704230C1D9C4204D95C1ED75C17550133F7E7CB1C0027D754D31CCEF80430135DCEF808304C1D145D43EA0423CEF808308C1D145D43EA0443CEF8083064
:400D0000CC1D145D43EA0463CEF8083001F10803D35CCEF80C3001F10904145D43EA0423CEF80C3001F10A04145D43EA0443CEF80C3001F10B04125D43EA0263CEF80C30E8
:400D40000C310844A9694FEA0C128B18DEF80090DEF80480DEF80870DEF80C4041F80290C3F804809F60DC600CF1010C9AE7335CEB61421CB25C43EA0223EB61821CB25C4D
:400D800043EA0243EB61C21CB25C43EA0263EB610430BDE8F88300BF2DE9F04106460C4600F10408D8F804300B70D8F804301B0A4B70B8F806308B7098F80730CB7000254B
:400DC0000427D8F80430AB420AD9D8F818002B01C2581268E1191844904707440135F0E7D8F81C30E3557A1CD8F81C301B0AA354BB1CB8F81E20E254FB1C98F81F20E2548E
:400E0000381D736A23547A1D736A1B0AA354BB1DF28CE254073796F82730E35504300022736A9A4209D2F36A33F812302354411C1B0A635402300132F2E7BDE8F08100BF1B
:400E40002DE9F84F07460D4600F10C0400F110060B784A7843EA022391F8028043EA084391F8038043EA08687368984505D94FEA0811B06908F090FEB061C6F804804FF091
:400E8000000C4FF004087368634569D906F1080E05EB080200210B46032B07D8D05C4FEAC30900FA09F001430133F5E70423081D984206D9581E12F8039002F80090013342
:400EC000F5E7CB1C4FF0000902F80390D31CCEF80430135CCEF80830481D105C43EA0023CEF80830881D105C43EA0043CEF80830C81D105C43EA0063CEF8083001F108038A
:400F0000D35CCEF80C3001F10900105C43EA0023CEF80C3001F10A00105C43EA0043CEF80C3001F10B00125C43EA0263CEF80C300C318844B1694FEA0C128B18DEF800B04B
:400F4000DEF804A0DEF80890DEF80C0041F802B0C3F804A0C3F80890D8600CF1010C92E715F80830F36108F10102AA5C43EA0223F36108F10202AA5C43EA0243F36108F14C
:400F80000302AA5C43EA0263F36108F10406AB5D08F10502AA5C43EA022308F10602AA5C43EA024308F1070815F8088043EA08680436636A984505D94FEA4801E06A08F0A4
:400FC000EBFDE062C4F824800023626A9A420CD9AA5D711C695C42EA012222850236E26A218D22F813100133EFE7FB6B20469847BDE8F88F2DE9F04704460D46061D0B7888
:401000004A7843EA02238F7843EA0743CF7843EA076773689F4204D93901B06908F0BCFDB06177604FF0000C4FF004087368634562D906F1080E05EB080200210B46032BBC
:4010400005D8D05CDF00B84001430133F7E70423081D984204D9581ED75C17540133F7E7CB1C0027D754D31CCEF80430135CCEF80830481D105C43EA0023CEF80830881DBE
:40108000105C43EA0043CEF80830C81D105C43EA0063CEF8083001F10803D35CCEF80C3001F10900105C43EA0023CEF80C3001F10A00105C43EA0043CEF80C3001F10B00B9
:4010C000125C43EA0263CEF80C300C318844B1694FEA0C128B18DEF800A0DEF80490DEF80870DEF80C0041F802A0C3F804909F60D8600CF1010C99E715F80830F36108F144
:401100000102AA5C43EA0223F36108F10202AA5C43EA0243F36108F10302AA5C43EA0263F36108F10406AB5D08F10502AA5C43EA022308F10602AF5C43EA074308F107085F
:4011400015F8087043EA07670436636A9F4204D97900E06A08F020FDE06267620023626A93420CD2AA5D711C695C42EA012222850236E26A218D22F813100133EFE73046C7
:40118000BDE8F087F8B505460C464068C0F3C752C0F31603FF2A12D012B102F5607210E07BB102F5607212B25B0013F4000F03D15B00013A12B2F8E7C3F3160301E040F2E9
:4011C000FF72002121706170A1705901E170D9082171D90A6171DB0C43EA0213A371C2F30616E671002108F0F5F910B166F07F02E27104F10806A868C0F3C752C0F3160315
:40120000FF2A12D012B102F5607210E07BB102F5607212B25B0013F4000F03D15B00013A12B2F8E7C3F3160301E040F2FF72002121727170B1705901F170D9083171D90AC6
:401240007171DB0C43EA0213B371C2F30617F771002108F0BFF910B167F07F02F27104F11006E868C0F3C752C0F31603FF2A12D012B102F5607210E07BB102F5607212B205
:401280005B0013F4000F03D15B00013A12B2F8E7C3F3160301E040F2FF72002121747170B1705901F170D9083171D90A7171DB0C43EA0213B371C2F30614F471002108F008
:4012C00089F910B164F07F02F2711820F8BD00BFF8B505460C464068C0F3C752C0F31603FF2A12D012B102F5607210E07BB102F5607212B25B0013F4000F03D15B00013A22
:4013000012B2F8E7C3F3160301E040F2FF72002121706170A1705901E170D9082171D90A6171DB0C43EA0213A371C2F30616E671002108F04FF910B166F07F02E27104F1AA
:401340000806A868C0F3C752C0F31603FF2A12D012B102F5607210E07BB102F5607212B25B0013F4000F03D15B00013A12B2F8E7C3F3160301E040F2FF7200212172717011
:40138000B1705901F170D9083171D90A7171DB0C43EA0213B371C2F30617F771002108F019F910B167F07F02F27104F11006E868C0F3C752C0F31603FF2A12D012B102F5A3
:4013C000607210E07BB102F5607212B25B0013F4000F03D15B00013A12B2F8E7C3F3160301E040F2FF72002121747170B1705901F170D9083171D90A7171DB0C43EA0213BD
:40140000B371C2F30617F771002108F0E3F810B167F07F02F27104F118062869C0F3C752C0F31603FF2A12D012B102F5607210E07BB102F5607212B25B0013F4000F03D19D
:401440005B00013A12B2F8E7C3F3160301E040F2FF72002121767170B1705901F170D9083171D90A7171DB0C43EA0213B371C2F30614F471002108F0ADF810B164F07F024E
:40148000F2712020F8BD00BF2DE9F04780460E46051D6B680B706B681B0A4B70EB888B70EB79CB70AB680B71AB681B0A4B716B898B71EB7ACB71EB680B72EB681B0A4B7265
:4014C000EB898B72EB7BCB72286908F057FD04460023032B07D803F10C01DA0024FA02F272540133F5E72246296906F1100008F08FFA103408F118093719D9F80400C0F306
:40150000C752C0F31603FF2A12D012B102F5607210E07BB102F5607212B25B0013F4000F03D15B00013A12B2F8E7C3F3160301E040F2FF72002131557970B9705901F97039
:40154000D9083971D90A7971DB0C43EA0213BB71C2F30615FD71002108F03CF810B165F07F02FA7107F10805D9F80800C0F3C752C0F31603FF2A12D012B102F5607210E034
:401580007BB102F5607212B25B0013F4000F03D15B00013A12B2F8E7C3F3160301E040F2FF72002139726970A9705901E970D9082971D90A6971DB0C43EA0213AB71C2F3FE
:4015C000061A85F807A0002108F004F810B16AF07F02EA7107F11005D9F80C00C0F3C752C0F31603FF2A12D012B102F5607210E07BB102F5607212B25B0013F4000F03D194
:401600005B00013A12B2F8E7C3F3160301E040F2FF72002139746970A9705901E970D9082971D90A6971DB0C43EA0213AB71C2F3061A85F807A0002107F0CCFF10B16AF037
:401640007F02EA7107F11805D9F81000C0F3C752C0F31603FF2A12D012B102F5607210E07BB102F5607212B25B0013F4000F03D15B00013A12B2F8E7C3F3160301E040F260
:40168000FF72002139766970A9705901E970D9082971D90A6971DB0C43EA0213AB71C2F30617EF71002107F095FF10B167F07F02EA7120340027082F3CD8351907F10A03DC
:4016C00008EB83035868C0F3C752C0F31603FF2A12D012B102F5607210E07BB102F5607212B25B0013F4000F03D15B00013A12B2F8E7C3F3160301E040F2FF72002129704E
:401700006970A9705901E970D9082971D90A6971DB0C43EA0213AB71C2F3061985F80790002107F057FF10B169F07F02EA7108340137C0E708F150093719D9F80400C0F3F6
:40174000C752C0F31603FF2A12D012B102F5607210E07BB102F5607212B25B0013F4000F03D15B00013A12B2F8E7C3F3160301E040F2FF72002139707970B9705901F970D4
:40178000D9083971D90A7971DB0C43EA0213BB71C2F30615FD71002107F01CFF10B165F07F02FA7107F10805D9F80800C0F3C752C0F31603FF2A12D012B102F5607210E00C
:4017C0007BB102F5607212B25B0013F4000F03D15B00013A12B2F8E7C3F3160301E040F2FF72002139726970A9705901E970D9082971D90A6971DB0C43EA0213AB71C2F3BC
:40180000061A85F807A0002107F0E4FE10B16AF07F02EA7107F11005D9F80C00C0F3C752C0F31603FF2A12D012B102F5607210E07BB102F5607212B25B0013F4000F03D16C
:401840005B00013A12B2F8E7C3F3160301E040F2FF72002139746970A9705901E970D9082971D90A6971DB0C43EA0213AB71C2F30617EF71002107F0ADFE10B167F07F025E
:40188000EA7118340027082F3BD8351907F1180358F82300C0F3C752C0F31603FF2A12D012B102F5607210E07BB102F5607212B25B0013F4000F03D15B00013A12B2F8E7E6
:4018C000C3F3160301E040F2FF72002129706970A9705901E970D9082971D90A6971DB0C43EA0213AB71C2F3061985F80790002107F070FE10B169F07F02EA7108340137E1
:40190000C1E708F184093719D9F80400C0F3C752C0F31603FF2A12D012B102F5607210E07BB102F5607212B25B0013F4000F03D15B00013A12B2F8E7C3F3160301E040F21C
:40194000FF72002139707970B9705901F970D9083971D90A7971DB0C43EA0213BB71C2F30615FD71002107F035FE10B165F07F02FA7107F10805D9F80800C0F3C752C0F3C2
:401980001603FF2A12D012B102F5607210E07BB102F5607212B25B0013F4000F03D15B00013A12B2F8E7C3F3160301E040F2FF72002139726970A9705901E970D908297111
:4019C000D90A6971DB0C43EA0213AB71C2F3061A85F807A0002107F0FDFD10B16AF07F02EA7107F11005D9F80C00C0F3C752C0F31603FF2A12D012B102F5607210E07BB1AE
:401A000002F5607212B25B0013F4000F03D15B00013A12B2F8E7C3F3160301E040F2FF72002139746970A9705901E970D9082971D90A6971DB0C43EA0213AB71C2F3061786
:401A4000EF71002107F0C6FD10B167F07F02EA7118340027082F3CD8351907F1240308EB83035868C0F3C752C0F31603FF2A12D012B102F5607210E07BB102F5607212B2FB
:401A80005B0013F4000F03D15B00013A12B2F8E7C3F3160301E040F2FF72002129706970A9705901E970D9082971D90A6971DB0C43EA0213AB71C2F3061985F80790002170
:401AC00007F088FD10B169F07F02EA7108340137C0E72046BDE8F087F0B482B00446CD780879000140EA1515487945EA00308B791A0502F4700240EA0205CE79300100F454
:401B0000FE6040EA131318B240F2FF72904216D0A0F2FF327F2A14DC12F17E0F03DBA3F5607002B211E012F1960F0DDB45F08072C0F56070013022FA00F5002205E0FF2255
:401B400003E00025FF2200E000226FF07F439D4200D00135D20542EA550206F0800342EA036302AA42F8043D10686060CB7A087B000140EA1313487B43EA00308B7B1A0512
:401B800002F4700240EA0206CD7B280100F4FE6040EA13131FB240F2FF72974216D0A7F2FF327F2A14DC12F17E0F03DBA3F5607002B211E012F1960F0DDB46F08072C7F5F3
:401BC0006077013722FA07F6002205E0FF2203E00026FF2200E000226FF07F439E4200D00136D20542EA560205F0800342EA036302AA42F8043D1068A060CD7C087D00018E
:401C000040EA15104D7D40EA05358B7D1A0502F4700245EA0200CD7D290101F4FE6141EA131319B240F2FF72914216D0A1F2FF327F2A14DC12F17E0F03DBA3F560710AB237
:401C400011E012F1960F0DDB40F08072C1F56071013122FA01F0002205E0FF2203E00020FF2200E000226FF07F43984200D00130D20542EA500205F0800342EA036302AAA6
:401C800042F8043D1068E060182002B0F0BC7047F0B482B00446CD780879000140EA1515487945EA00308B791A0502F4700240EA0205CE79300100F4FE6040EA131318B2A9
:401CC00040F2FF72904216D0A0F2FF327F2A14DC12F17E0F03DBA3F5607002B211E012F1960F0DDB45F08072C0F56070013022FA00F5002205E0FF2203E00025FF2200E003
:401D000000226FF07F439D4200D00135D20542EA550206F0800342EA036302AA42F8043D10686060CB7A087B000140EA1313487B43EA00308B7B1A0502F4700240EA0206BF
:401D4000CD7B280100F4FE6040EA13131FB240F2FF72974216D0A7F2FF327F2A14DC12F17E0F03DBA3F5607002B211E012F1960F0DDB46F08072C7F56077013722FA07F6A3
:401D8000002205E0FF2203E00026FF2200E000226FF07F439E4200D00136D20542EA560205F0800342EA036302AA42F8043D1068A060CB7C087D000140EA1313487D43EAB4
:401DC00000308B7D1A0502F4700240EA0206CD7D280100F4FE6040EA13131FB240F2FF72974216D0A7F2FF327F2A14DC12F17E0F03DBA3F5607002B211E012F1960F0DDB3C
:401E000046F08072C7F56077013722FA07F6002205E0FF2203E00026FF2200E000226FF07F439E4200D00136D20542EA560205F0800342EA036302AA42F8043D1068E060F6
:401E4000CD7E087F000140EA15104D7F40EA05358B7F1A0502F4700245EA0200CD7F290101F4FE6141EA131319B240F2FF72914216D0A1F2FF327F2A14DC12F17E0F03DB41
:401E8000A3F560710AB211E012F1960F0DDB40F08072C1F56071013122FA01F0002205E0FF2203E00020FF2200E000226FF07F43984200D00130D20542EA500205F080037D
:401EC00042EA036302AA42F8043D10682061202002B0F0BC704700BF2DE9F04182B00446061D0B7873604A7843EA022373608A7843EA02437360CA7843EA026373600B7987
:401F0000B3604A7943EA0223B3608A7943EA0243B360CA7943EA0263B3600B7AF3604A7A43EA0223F3608A7A43EA0243F360CA7A43EA0263F36000221346032B06D8C8185C
:401F4000007BDD00A84002430133F6E7102302F110059D4204D9581ECD5C0D540133F6E70F3200238B5401F10F03336104F118064B19DF781A79120142EA171293F805E0AF
:401F800042EA0E379A79100500F4700047EA000E93F807C04FEA0C1707F4FE6747EA121217B240F2FF70874216D0A7F2FF307F2814DC10F17E0F03DBA2F5607738B212E054
:401FC00010F1960F0EDB4EF08070C7F56077013720FA07FE002006E0FF2004E04FF0000EFF2000E000206FF07F42964501D00EF1010EC00540EA5E000CF0800240EA026292
:4020000002A840F8042D0068E061DF7A1A7B120142EA17125F7B42EA07379A7B100500F4700047EA000C93F80FE04FEA0E1707F4FE6747EA12120FFA82F840F2FF70804509
:4020400017D0A8F2FF307F2815DC10F17E0F03DBA2F5607738B213E010F1960F0FDB4CF08070C8F5607808F1010820FA08FC002006E0FF2004E04FF0000CFF2000E000207D
:402080006FF07F42944501D00CF1010CC00540EA5C000EF0800240EA026202A840F8042D0068B060DF7C1A7D120142EA17125F7D42EA07379A7D100500F4700047EA000CFB
:4020C00093F817E04FEA0E1707F4FE6747EA12120FFA82F840F2FF70804517D0A8F2FF307F2815DC10F17E0F03DBA2F5607738B213E010F1960F0FDB4CF08070C8F5607812
:4021000008F1010820FA08FC002006E0FF2004E04FF0000CFF2000E000206FF07F42944501D00CF1010CC00540EA5C000EF0800240EA026202A840F8042D0068F06003F120
:40214000180ED87E1A7F120142EA10125F7F42EA07309B7F1A0502F4700240EA02079EF807E04FEA0E1000F4FE6040EA131318B240F2FF72904216D0A0F2FF327F2A14DCDD
:4021800012F17E0F03DBA3F5607002B211E012F1960F0DDB47F08072C0F56070013022FA00F7002205E0FF2203E00027FF2200E000226FF07F439F4200D00137D20542EAC0
:4021C00057020EF0800342EA036302AA42F8043D1068306120350026082E54D8481906F10A0704EB870790F803C003791B0143EA1C1390F805E043EA0E3C83791A0502F44C
:4022000070024CEA020E90F807C04FEA0C1000F4FE6040EA131318B240F2FF72904216D0A0F2FF327F2A14DC12F17E0F03DBA3F5607002B212E012F1960F0EDB4EF08072E2
:40224000C0F56070013022FA00FE002206E0FF2204E04FF0000EFF2200E000226FF07F439E4501D00EF1010ED20542EA5E020CF0800342EA036302AA42F8043D1068786043
:4022800008350136A8E704F150064F19F8783B791B0143EA101397F805E043EA0E30BB791A0502F4700240EA020E97F807C04FEA0C1000F4FE6040EA131318B240F2FF724A
:4022C000904216D0A0F2FF327F2A14DC12F17E0F03DBA3F5607002B212E012F1960F0EDB4EF08072C0F56070013022FA00FE002206E0FF2204E04FF0000EFF2200E0002240
:402300006FF07F439E4501D00EF1010ED20542EA5E020CF0800342EA036302AA42F8043D10686065F87A3B7B1B0143EA1013787B43EA0030BB7B1A0502F4700240EA020C09
:4023400097F80FE04FEA0E1000F4FE6040EA13130FFA83F840F2FF72904517D0A8F2FF327F2A15DC12F17E0F03DBA3F5607002B213E012F1960F0FDB4CF08072C8F56078CC
:4023800008F1010822FA08FC002206E0FF2204E04FF0000CFF2200E000226FF07F439C4501D00CF1010CD20542EA5C020EF0800342EA036302AA42F8043D1068B060F87C0C
:4023C0003B7D1B0143EA101397F815E043EA0E30BB7D10371A0502F4700240EA020EFF79380100F4FE6040EA131318B240F2FF72904216D0A0F2FF327F2A14DC12F17E0F26
:4024000003DBA3F5607002B212E012F1960F0EDB4EF08072C0F56070013022FA00FE002206E0FF2204E04FF0000EFF2200E000226FF07F439E4501D00EF1010ED20542EABC
:402440005E0207F0800342EA036302AA42F8043D1068F06018350026082E53D8481906F1180790F803C003791B0143EA1C1390F805E043EA0E3C83791A0502F470024CEADA
:40248000020E90F807C04FEA0C1000F4FE6040EA131318B240F2FF72904216D0A0F2FF327F2A14DC12F17E0F03DBA3F5607002B212E012F1960F0EDB4EF08072C0F5607083
:4024C000013022FA00FE002206E0FF2204E04FF0000EFF2200E000226FF07F439E4501D00EF1010ED20542EA5E020CF0800342EA036302AA42F8043D106844F8270008357E
:402500000136A9E704F184064F19F8783B791B0143EA101397F805E043EA0E30BB791A0502F4700240EA020E97F807C04FEA0C1000F4FE6040EA131318B240F2FF729042FD
:4025400016D0A0F2FF327F2A14DC12F17E0F03DBA3F5607002B212E012F1960F0EDB4EF08072C0F56070013022FA00FE002206E0FF2204E04FF0000EFF2200E000226FF030
:402580007F439E4501D00EF1010ED20542EA5E020CF0800342EA036302AA42F8043D1068C4F88800F87A3B7B1B0143EA1013787B43EA0030BB7B1A0502F4700240EA020C67
:4025C00097F80FE04FEA0E1000F4FE6040EA13130FFA83F840F2FF72904517D0A8F2FF327F2A15DC12F17E0F03DBA3F5607002B213E012F1960F0FDB4CF08072C8F560784A
:4026000008F1010822FA08FC002206E0FF2204E04FF0000CFF2200E000226FF07F439C4501D00CF1010CD20542EA5C020EF0800342EA036302AA42F8043D1068B060F87C89
:402640003B7D1B0143EA101397F815E043EA0E30BB7D10371A0502F4700240EA020EFF79380100F4FE6040EA131318B240F2FF72904216D0A0F2FF327F2A14DC12F17E0FA3
:4026800003DBA3F5607002B212E012F1960F0EDB4EF08072C0F56070013022FA00FE002206E0FF2204E04FF0000EFF2200E000226FF07F439E4501D00EF1010ED20542EA3A
:4026C0005E0207F0800342EA036302AA42F8043D1068F06018350026082E54D8481906F1240704EB870790F803C003791B0143EA1C1390F805E043EA0E3C83791A0502F476
:4027000070024CEA020E90F807C04FEA0C1000F4FE6040EA131318B240F2FF72904216D0A0F2FF327F2A14DC12F17E0F03DBA3F5607002B212E012F1960F0EDB4EF08072DD
:40274000C0F56070013022FA00FE002206E0FF2204E04FF0000EFF2200E000226FF07F439E4501D00EF1010ED20542EA5E020CF0800342EA036302AA42F8043D106878603E
:4027800008350136A8E7284602B0BDE8F08100BF2DE9F04387B0044601F098F90546D4F8AC38C31A42F6F822934202D9002384F8A438D4F8903833B1D4F8B038AB4202D293
:4027C0000023C4F89038636933B101F07FF96369401B984200F2808203F048FF10B103F013FF01E04FF0FF300028C0F25982D4F8A0280244C4F8A028D4F89038072B11D11A
:40280000D4F89C385A1CC4F89C2823441876D4F89438013BC4F89438002BD4D10823C4F89038D0E7B3B9FF2807D10133C4F8903805F11403C4F8B038C5E701F047F9401B6F
:4028400041F288339842BED9002384F8A4386FF0010047E2012B1BD1FE2803D10133C4F89038B0E70023C4F8903894F8A438002BA9D1B14B009300230193029323681B68F7
:402880006A460A212046984701F020F9A0609AE7022B0AD1C4F894080022C4F89C280133C4F89038C4F8A0088DE7032B09D1D4F8942802EB0020C4F894080133C4F890382E
:4028C00081E7042B11D19D491140002903DA013961F0FF010131FF2903D10133C4F8903871E70023C4F890386DE7052B07D1C4F898080133C4F89038C4F8A00863E7062B63
:4029000011D1D4F8983803EB0020C4F898080723C4F89038D4F89438002B7FF454AF0823C4F890384FE7082B7FF44DAF0023C4F89038824B1340002B03DA013B63F0FF03E1
:402940000133FF2B7FF43FAFD4F89838002B71D1794B009300260196029623681B686A460A212046984701F0B1F8A060744B0093ADF80460734B0293039304930596132E64
:4029800024DC06F2062354F82330EBB19A68ADF804201A680292586803689B689847039006F2062754F8273058680368DB68984704904FF48063059323681B6854F8271042
:4029C0006A460969204698470136D8E70026092E26DC06F21A2354F82300F8B14368ADF804308368029303689B689847039006F21A2754F827000368DB68984704904FF4DA
:402A0000806305932368D3F8008054F8270003685B6898476A4601462046C0470136D6E7012384F8A438C4F8A858C4F8AC584FF0FF3057E10A2B42D101F048F8A268801AB2
:402A4000237E627E43EA0223A27E43EA0243E27E43EA0263227F617F42EA0122A17F42EA014194F81FE041EA0E6E374EA6FB00218A09134401934FF47A7808FB1202334FDC
:402A800007FB02E3029301F021F8A6FB0036B309019AD21A013AE26008FB1303029A07FB13232B4A1A44226104F1100104F10C00FDF7E8FA01F00AF8C4F8AC0883E6062BDC
:402AC00040F0D58004F6B80804F11807237E627E43EA0223A67E43EA0643E67E43EA0666D8F804309E4206D9B100D8F80C0007F053F8C8F80C00C8F8046000220426D8F87B
:402B00000430934226D9BB5D711C795C43EA0123B11C795C43EA0143F11C795C43EA0163C8F808300436D8F80C30D8F8081043F822100132E3E700BF90A90000FF00008035
:402B4000A8A90000C8AE0000D34D621040420F0000CA9A3BBB5D721CBA5C43EA0223B21C17F8029043EA0943F21C17F8029043EA09690436D8F81030994507D94FEA8901BD
:402B8000D8F8180007F008F8C8F81800C8F810900022D8F81030934217D9BB5D711C795C43EA0123B11C795C43EA0143F11C795C43EA0163C8F814300436D8F81830D8F890
:402BC000141043F822100132E3E7BB5D721CBA5C43EA0223B21C17F8029043EA0943F21C17F8029043EA09690436D8F81C30994507D94FEA8901D8F8240006F0CDFFC8F8B6
:402C00002400C8F81C904FF0000CD8F81C30634529D9B64600210B46032B07D807EB0E02D25CD800824011430133F5E7043633468A199A4206D9581E17F803E007F800E0F2
:402C40000133F5E7531E0021F954013EBB19C8F820301646D8F82430D8F8202043F82C200CF1010CD1E7012384F8B438ABE50B2B03D1002384F8A438A5E5A3F1640203F54C
:402C8000DB7354F8230000283FF49DAD02F21A2254F822301B681B6804F11801984792E594F8A438DBB1D4F8A838EB1A40F6C412934216D90D4B009300260196029623683A
:402CC0001B686A460A212046984700F0FFFEA060C4F8A858304605E06FF0010002E0002000E0002007B0BDE8F08300BF90A9000010B5504C504BC4F8843A1023C4F87C3AE9
:402D000003F074FC0023C4F84839C4F84C39C4F85439C4F85039092B16DC03F21A22454901EB8202D2F8B82062B90A4603F21A2102EB810102F69810C1F8B8006433C2F89E
:402D40009C3901E00133E6E70023092B16DC03F21A22384901EB8202D2F8B82062B90A4603F21A2102EB810102F6B410C1F8B8006433C2F8B83901E00133E6E70023132BD3
:402D80001ADC03F206222B4901EB8202D2F8B82082B90A4603F2062102EB810102F64420C1F8B8006E33C2F84C3A02F1B803C2F8503A01E00133E2E70023132B1ADC03F29A
:402DC00006221C4901EB8202D2F8B82082B90A4603F2062102EB810102F68820C1F8B8006E33C2F8903A02F1B803C2F8943A01E00133E2E70023132B1ADC03F206220D490A
:402E000001EB8202D2F8B82082B90A4603F2062102EB810102F69C20C1F8B8006E33C2F8A43A02F1B803C2F8A83A10BD0133E2E710BD00BF54C9FF1FB0D5FF1FF0B587B0B2
:402E400004462F4B00930025ADF804502D4B0293039304930595132D24DC05F2062354F82330EBB19A68ADF804201A680292586803689B689847039005F2062654F8263028
:402E800058680368DB68984704904FF48063059323681B6854F826106A460969204698470135D8E70025092D25DC05F21A2354F82300F0B14368ADF8043083680293036878
:402EC0009B689847039005F21A2654F826000368DB68984704904FF48063059323681F6854F8260003685B6898476A4601462046B8470135D7E7012384F8A43807B0F0BD14
:402F0000A8A90000C8AE00002DE9F04186B03221C74800F0E1FD002800F06383C54B93F8B43A13B1012B1BD0B9E0C24CC24B1B7884F8403AD4F8500A03681B6804F63C2212
:402F4000D4F84C1A9847D4F8940A03681B6804F65822D4F8901A9847012384F8B43A9EE0B44CB64B636100F0B1FDD4F8C410B44AA2FB0032930919440491D4F8C8204FF4BE
:402F80007A7101FB1303AF4901FB0323059304AD05A92846FDF776F804F10C0395E8030083E80300A84DB5F9080005F0B9FC0022A64B05F01BFD06F011F8E061B5F90A00D4
:402FC00005F0AEFC0022A14B05F010FD06F006F82062B5F90C0005F0A3FC00229B4B05F005FD05F0FBFF6062B5F9060005F098FC0022964B05F0FAFC05F0F0FFA062B5F9EF
:40300000000005F08DFC0022914B05F019FE05F0E5FF6065B5F9020005F082FC00228C4B05F00EFE05F0DAFFA065B5F9040005F077FC0022864B05F003FE05F0CFFFE0656F
:40304000B5F90E0005F06CFC0022824B05F0F8FD05F0C4FFC4F88800B5F9100005F060FC00227C4B05F0ECFD05F0B8FFC4F88C00B5F9120005F054FC0022764B05F0E0FDDE
:4030800005F0ACFFC4F89000D4F8A80A03681B682246D4F8A41A9847002384F8B43A00F015FD0446634BD3F86439C31A42F6F822934203D900225F4B83F85C295D4BD3F8D9
:4030C000483943B15B4BD3F868399C4203D90022584BC3F84829574BD3F8CC3043B100F0F5FC544BD3F8CC30001B984200F2798203F0BCFA10B103F087FA01E04FF0FF30EB
:403100000028C0F24F824B4BD3F858290244C3F85829D3F84839072B13D1464BD3F85429511CC3F854191A4482F8D000D3F84C29013AC3F84C29002ACDD10822C3F848293F
:40314000C9E7B3B9FF2808D13A4A0133C2F8483904F11403C2F86839BDE700F0B7FC001B41F288339842B6D90022324B83F85C2937E2012B1FD1FE2804D101332D4AC2F8EC
:403180004839A8E72B4B0022C3F8482993F85C39002BA0D1304B019302920392254D284650F8B83F1B6801AA0A21984700F08EFCC5F8C0008FE7022B0BD11E4AC2F84C0903
:4031C0000021C2F854190133C2F84839C2F8580981E7032B0AD1174AD2F84C1901EB0020C2F84C090133C2F8483974E7042B13D11A491140002903DA013961F0FF0101318D
:40320000FF2904D101330B4AC2F8483963E70022084BC3F848295EE7052B21D1054AC2F850090133C2F84839C2F8580953E700BF04D4FF1F54C9FF1FD0D5FF1FA8AE00004C
:40324000D34D621040420F0020D7FF1F0000103F00208C400000594090A90000FF000080062B13D1C94BD3F8502902EB0020C3F850090722C3F84829D3F84C39002B7FF4B9
:403280002AAF0822C14BC3F8482924E7082B7FF422AF0021BD4BC3F84819BD4B13408B4203DA013B63F0FF030133FF2B7FF413AFB64BD3F85039CBB9B64B019300230293BD
:4032C0000393B24D2E4656F8B83F1B6801AA0A213046984700F0FAFBC5F8C0003046FFF7ADFDC5F86049C5F864497AE10A2B4CD100F0ECFBA54DD5F8C020801A95F8D03040
:4033000095F8D12043EA022395F8D22043EA024395F8D32043EA026395F8D42095F8D51042EA012295F8D61042EA014195F8D7E041EA0E6E984EA6FB00218A091344029385
:403340004FF47A7808FB1202944F07FB02E3039300F0BCFBA6FB0036B309029AD21A013AC5F8C42008FB1303039A07FB13238C4A1A44294641F8C82F05F1C400FCF782FE15
:4033800000F0A4FBC5F86409A5E6062B40F0DE807E4A92F8D03092F8D11043EA012392F8D25043EA054392F8D35043EA0565D2F874399D4207D91646A900D2F87C0906F017
:4033C000EBFBC6F87C09714BC3F87459002604256E4BD3F87439B3421AD96C4A02F1D0014B5D681C085C43EA0023A81C085C43EA0043E81C095C43EA0163C2F87839043568
:40340000D2F87C39D2F8780943F826000136DFE75E4901F1D002535D681C105C43EA0023A81C165C43EA0643E81C165C43EA06660435D1F880399E4207D90F46B100D7F8FE
:40344000880906F0A9FBC7F88809504BC3F8806900264E4BD3F88039B3421AD94B4A02F1D0014B5D681C085C43EA0023A81C085C43EA0043E81C095C43EA0163C2F8843925
:403480000435D2F88839D2F8840943F826000136DFE73E4901F1D002535D681C105C43EA0023A81C165C43EA0643E81C165C43EA06660435D1F88C399E4207D90F46B10010
:4034C000D7F8940906F068FBC7F894092F4BC3F88C6900262D4BD3F88C39B34231D92F4600210A46032A09D8284B3B44134493F8D030D000834019430132F3E704352B46E6
:403500004A199A420AD9214A02F1D007581E1A4492F8D0E007F800E00133F1E71B4901F1D003501E00271F54013D2B44C1F890391546D1F89439D1F8900943F826000136F0
:40354000C8E70122114B83F86C29C4E50B2B04D100220E4B83F85C29BDE5A3F1640503F5DB730A4A02EB8303D3F8B80000283FF4B2AD114605F21A2302EB8303D3F8B83044
:403580001B681B68D0319847A5E500BF54C9FF1FFF00008090A90000D34D621040420F0000CA9A3B104B93F85C39D3B10E4BD3F86039E31A40F6C412934212D90B4B0193B8
:4035C000002302930393084D284650F8B83F1B6801AA0A21984700F079FAC5F8C000C5F8604906B0BDE8F08154C9FF1F90A9000008B54FF6FF710120FCF75AFF08BD00BF5A
:4036000070B5064615460C4C204600F8011B194606F0FEF903F0DAFB6A1C0023D2B22146304603F0E9FA00F051FAC4F80001012384F8043170BD00BF0CD4FF1FF8B5054649
:4036400017461E460B4C217003F0C0FB002301222146284603F0D0FA84F8055184F80671C4F8086100F032FAC4F80001022384F80431F8BD0CD4FF1F38B5454B93F8043192
:40368000012B28D16421434800F014FA58B903F081FB45B210F0020F07D000223C4B83F80421022402E0002400E001246421394800F000FA28B10022354B83F804214FF0B4
:4036C000FF3415F0F00F60D00022314B83F804216FF0010459E0022B31D164212D4800F0E9F9D0B903F056FB45B210F0020F1BD0274C032384F8043103F068FB002394F87E
:403700000621D4F8081194F8050103F0DBFA00F0DDF9C4F80001012407E000221C4B83F804214FF0FF3400E0012415F0F00F2CD00022174B83F804216FF0010425E0032B39
:4037400022D16421134800F0B5F958B903F022FB45B210F0010F0CD000220D4B83F80421032407E000220A4B83F804214FF0FF3400E0012415F0F00F07D00022044B83F857
:4037800004216FF0010400E00024204638BD00BF0CD4FF1F0CD5FF1F10B50C4C94F80C4114B1012C07D00FE0FFF748FF0120074B83F80C0110BDFFF75FFF012805D000223E
:4037C000024B83F80C2110BD002010BD0CD4FF1F10B50C4C94F80D4114B1012C07D00FE0FFF70EFF0120074B83F80D0110BDFFF743FF012805D00022024B83F80D2110BD86
:40380000002010BD0CD4FF1F70B4451C8022002615E02B78134001D001238B401C43012A02D10135802200E05208013101E0002421460A29EDD91A4B23F8164001360F2E55
:40384000F5D9C27DD209164B83F82020C27DC2F3801283F82120C27DC2F3401283F82220C27DC2F3001283F82320C27D02F00F0283F82420027E920983F82520C27DC2F36B
:40388000011283F82620027EC2F381014A0002F0020242EA510283F8272070BC704700BFD8D6FF1F014B23F81100704798D6FF1F10B582B0044600F0B9F800238DF8073012
:4038C000364B1A78511CC9B219701A4410715B7F032B5BD8DFE803F002202748F02806D101212E4A5177FF212D4A117053E02C4A1278FF2A0CD002F11801B0EBC10F07DBE5
:403900001932B0EBC20F03DA0321244A517742E00021224A11703EE0172939D902221F4B5A77002337E01D4B00225A771A7000F02303202B08D1C4F30114194B1C70194824
:40394000FFF762FF012326E010F0300F07D1FF22134B1A701348FFF757FF01231BE0FF220F4B1A70002316E0022913D90B4C6079A3792179403103EB0020C9B280B2FFF7A3
:4039800091FF002363772370022304E0002302E0002300E00023184602B010BD20D5FF1FD2C0FF1F24D5FF1F38B505460C46282200210B4806F0A2F840220021094806F05A
:4039C0009DF8002306E04FF48061054A22F813100133DBB20F2BF6D9034B1D625C6238BDD8D6FF1F98D6FF1F20D5FF1F08B5064B5B6A984730B1044B1B6A9847C0B2FFF716
:403A000057FF08BD002008BD20D5FF1F0138034B33F810300B800020704700BFD8D6FF1F014B93F823007047D8D6FF1F4200401022F0550200F055000243D2B293009210D9
:403A400023F0330302F033021343DBB2180940EA0310C0B2704700BF094A136801331360938801339BB29380C82B04D9134600229A8001229A710122014BDA71704700BFC6
:403A800048D5FF1F08B508490F2003F05FFE074B45F6BF525A60E021054A82F8231000229A6007221A6008BD593A000010E000E000ED00E0044B1B6802689B1A8B4201D3A3
:403AC000012070470020704748D5FF1F014B1868704700BF48D5FF1F10B50446FFF7EAFF20B1034B1B682360012010BD002010BD48D5FF1F00B500FB00F20A4981FB02E3E0
:403B0000D217C2EBA31303FB00F381FB0321DB17C3EBA113184400EBD07040F34F005DF804FB00BFD34D621000B5B0F5F06F03DCB0F58C6F03DB04E04FF4F06001E04FF4F5
:403B40008C60B0F5BE6F0DDDA0F5BE604FF47A7303FB00F0174B83FB00E3C017C0EBE3131BB210E0B0F5BE6F0CDAC0F5BE60124B03FB00F00F4B83FB00E3C017C0EBE313CB
:403B80001BB200E00023B3F57A7F03DC13F57A7F03DB03E04FF47A7300E0074B012903D0022904D05DF804FB13805DF804FB53805DF804FB1F85EB5118FCFFFF00B5B0F5E7
:403BC000D06F03DCB0F5C07F03DB04E04FF4D06001E04FF4C070B0F5806F0DDDA0F580604FF47A7303FB00F0224B83FB00E3C017C0EB23231BB210E0B0F5806F0CDAC0F5A7
:403C000080601D4B03FB00F01A4B83FB00E3C017C0EB23231BB200E00023B3F57A7F03DC13F57A7F03DB03E04FF47A7300E0124B013907291BD8DFE801F004070A0D1013E7
:403C4000161913805DF804FB53805DF804FB93805DF804FBD3805DF804FB13815DF804FB53815DF804FB93815DF804FBD3815DF804FB00BF6766666618FCFFFF012A24D14F
:403C8000B0F900304B2B0DDD4B3B4FF47A7202FB03F3214A82FB03021A44DB17C3EB62230B80704713F14B0F0CDA4B331B4A02FB03F3194A82FB03021A44DB17A3EB62230F
:403CC0000B80704700230B807047022A23D1B0F902304B2B0DDD4B3B4FF47A7202FB03F30D4A82FB03021A44DB17C3EB62234B80704713F14B0F0CDA4B33084A02FB03F335
:403D0000054A82FB03021A44DB17A3EB62234B80704700234B807047C70FB38D18FCFFFFF8B504460D461E46012A1DD1304BB3F9003013B1B0F900205AB1002B03DDB4F992
:403D40000020002A05DB002B09DAB4F90030002B05DD274F01233B74FFF7B8FE7861B4F90020234B1A801EE0022A1CD1204BB3F9023013B1B0F902205AB1002B03DDB4F9CC
:403D80000220002A05DB002B09DAB4F90230002B05DD174F01233B76FFF798FEF861B4F90220134B5A80124B1B7C012B0AD100232B8031460F48FFF77DFE30B100220C4B54
:403DC0001A7402E0B4F900302B80094B1B7E012B0AD100236B8031460748FFF76BFE30B10022034B1A76F8BDB4F902306B80F8BD50D5FF1F64D5FF1F6CD5FF1F0000000096
:403E00002DE9F04F83B004460D469146B0F9020005F0EEF9C64905F0F3FA0646B4F9000005F0E6F9C24905F0EBFA044626F0004820F0004A304604F085FD06460F46204667
:403E400004F080FD32463B4604F0A6F9B2A3D3E9002304F0F5FE05F0C1F80446C9F80000002105F0CBFB00B34FF07E51204605F0B1FBD0B1504604F065FDA9A3D3E9002335
:403E800004F0B4FD06460F46404604F05BFD32463B4604F0F7FB05F0A1F80446002105F099FB002800F0A08293E24FF07E51204605F0A4FB00286CD04FF08041204605F013
:403EC00089FB002865D0404604F03CFD06460F4695A3D3E9002305F00FF8B8B1504604F031FD8FA3D3E9002304F080FD02460B463046394604F0C6FB05F070F804460021CC
:403F000005F068FB002800F06F8264E20AF1004432463B4684A1D1E9000104F0B3FB82A3D3E9002304F08CFE80468946204604F009FD42464B4604F059FD05F04FF84FF0CB
:403F40007D5105F0A9F90446504604F0FBFC0022784B04F04BFD02460B464046494604F045FD8046894670A3D3E900233046394604F066FE6CA3D3E9002304F037FD0246DA
:403F80000B464046494604F07FFB05F027F880462AE24FF08041204605F030FBA0B14FF08041204605F020FB70B10AF100444FF07D51504605F070F980464FF07D51204660
:403FC00005F06AF904460FE24FF08041204605F01FFB002870D05849204605F005FB00286AD0404604F0AEFC06460F464EA3D3E9002304F081FFB0B1504604F0A3FC48A375
:40400000D3E9002304F0F2FC02460B463046394604F038FB04F0E2FF0446002105F0DAFA002844D042E00AF1004432463B463EA1D1E9000104F026FB3BA3D3E9002304F00B
:40404000FFFD80468946204604F07CFC42464B4604F0CCFC04F0C2FF4FF07D5105F01CF90446504604F06EFC0022324B04F0BEFC02460B464046494604F0B8FC80468946C6
:4040800029A3D3E900233046394604F0D9FD26A3D3E9002304F0AAFC02460B464046494604F0F2FA04F09AFF804600E0002404F1004408F1004897E11F49204605F0A8FA18
:4040C000E8B14FF08141204605F084FAB8B1504604F038FC12A3D3E9002304F087FC06460F46404604F02EFC32463B4604F0CAFA04F074FF00F1004408F1004874E14FF0B4
:404100008141204605F07AFAC0B108F10044A0466AE100BFAFF30080182D4454FB21E93F9A9999999999E93F9A9999999999B93F00007A440000E83F0000404000212046D3
:4041400005F048FAD0B1B649204605F061FAA8B1504604F0F7FBAEA3D3E9002304F046FC06460F46404604F0EDFB32463B4604F089FA04F033FF4446804635E1A849204641
:4041800005F032FA00286ED04FF04041204605F03FFA002867D0404604F0D4FB06460F469DA3D3E9002304F0A7FEC8B1504604F0C9FB97A3D3E9002304F018FC02460B46A2
:4041C0003046394604F05EFA04F008FF0646002105F000FA002840F000814446B04603E10AF1004432463B468BA1D1E9000104F049FA89A3D3E9002304F022FDCDE90001BF
:40420000204604F09FFBDDE9002304F0EFFB04F0E5FE4FF07D5105F03FF88046504604F091FB00227F4B04F0E1FB02460B46DDE9000104F0DBFB82468B4677A3D3E900235F
:404240003046394604F0FCFC73A3D3E9002304F0CDFB02460B465046594604F015FA04F0BDFE0446C0E04FF04041204605F0C6F998B14FF04041204605F0B6F968B10AF141
:4042800000404FF07D5105F007F880464FF07D51504605F001F80446A6E04FF04041204605F098F9002871D05F49204605F0A6F900286BD0404604F045FB06460F4656A328
:4042C000D3E9002304F018FEB0B1504604F03AFB4FA3D3E9002304F089FB02460B463046394604F0CFF904F079FE8146002105F071F9002845D042E00AF1004432463B46D9
:4043000045A1D1E9000104F0BDF943A3D3E9002304F096FCCDE90001204604F013FBDDE9002304F063FB04F059FE4FF07D5104F0B3FF8146504604F005FB0022394B04F0A4
:4043400055FB02460B46DDE9000104F04FFB82468B4631A3D3E900233046394604F070FC2DA3D3E9002304F041FB02460B465046594604F089F904F031FE804601E04FF082
:40438000000908F1004409F100482DE02649204605F020F928B32549204605F02FF910B3504604F0CFFA1AA3D3E9002304F01EFB06460F46404604F0C5FA32463B4604F033
:4043C00061F904F00BFE00F1004008F1004480460AE0002408E0002406E044464FF0000802E0444600E044460021404605F0F2F810B30F49404604F04FFF04F0A3FA00226F
:404400000C4B04F03FF904F0A1FD00B221E000BF9A9999999999E93F9A9999999999B93F000080BF0000E83F000040C0000080C000007A440000E03F1849404604F02CFF1E
:4044400004F080FA0022164B04F01EF904F07EFD00B228800021204605F0BCF868B10F49204604F019FF04F06DFA00220C4B04F009F904F06BFD00B20CE00849204604F0F5
:404480000BFF04F05FFA0022054B04F0FDF804F05DFD00B2688003B0BDE8F08F00007A440000E03F2DE9F0410E46BDF81880BDF81C70013A12F0FF0402D1B0F9005003E096
:4044C000012C01D1B0F902503A4A02EB4402B2F9202095425AD01946374800EB8400FFF7E9FA002852D0FFF7F1FA324B03EB8402506203EB4403B3F920309D4225DDB8F170
:40450000000F0FD003EB0802AA4206DC294A02EB44029844A2F8208008E0264B03EB44031D8403E0234B03EB44031D84214B03EB4403B3F92030B3F57A7F27DD1D4B03EB1D
:4045400044034FF47A721A8420E06FB1DA1BAA4205DB184A02EB4402DF1B178408E0154B03EB44031D8403E0124B03EB44031D84104B03EB4403B3F9203013F57A7F05DA7C
:404580000C4B03EB44034FF618421A843CB9094A02EB4404B4F920303380BDE8F081012C05D1044A02EB4404B4F920307380BDE8F08100BF50D5FF1F74D5FF1F00000000FA
:4045C00070B504460D4600261BE025A3D3E900232046294604F090FC50B121A3D3E900232046294604F02CFB04460D46053608E000221F4B2046294604F022FB04460D4679
:40460000013600221A4B2046294604F075FC0028DBD11BE014A3D3E900232046294604F057FC50B10EA3D3E900232046294604F0DDF904460D46053E08E000220C4B20462A
:40464000294604F0D3F904460D46013E0022094B2046294604F03CFC0028DBD1304670BD00000000006AF840F168E388B5F8E43E000024400000F03F10B5044600201449ED
:404680000DE0042C06DD10A3D3E9002304F0AEF9053C04E000220F4B04F0A8F9013C002CEFDC0EE014F1040F06DA07A3D3E9002304F0C6FA053404E00022064B04F0C0FA02
:4046C0000134002CEEDB10BD00000000006AF8400000F03F000024402DE9F04F85B0054690461E46DDF838B09DF83C90424633464046314604F014FC002840F0F380BBF1E8
:40470000000F01DA4FF0060B002200234046314604F0DEFB20B106F100462D232B70013526F000444FF0FF32784B4046214604F0F7FB40B94FF0FF32744B4046214604F098
:40474000D1FB00285CD0B9F1660F3AD0002200234046314604F0B2FB002855D140463146FFF72EFFCBEB0000FFF786FF0022684B04F03CF902460B464046314603F084FF64
:4047800080460E4640463146FFF71AFF019063283EDC0BF106031F2B3DDC10F1630F02DA6FF0620301930198FFF766FF02460B464046314604F044FA80460E460024274627
:4047C0002FE0CBF10000FFF757FF0022504B04F00DF902460B464046314603F055FF80460E4640463146FFF7EBFE071E00DA00270BEB070303331F2B10DC0024019410E0DD
:40480000444C002701970CE000242746019408E0414C002705E0404C002702E03E4C00230193002C61D10294AA46CDF80C9000E092463846FFF720FF04460D4602460B46FA
:404840004046314604F0FCF904F080FB814604F067F822462B4604F0C9F802460B464046314603F00FFF80460E46B7F1FF3F04D12E238AF800300AF1010A0AF1010209F1CE
:4048800030098AF80090013FCBF100039F42CFDA029C5546DDF80C90B9F1660F24D08AF80190019B002B06DA5B420193E91C2D238AF8023003E0E91C2B238AF80230174B27
:4048C000019883FB0032C317C3EBA20303F130020D4605F8022B03EB83035A00821A30324A7002E00E4C00E0154644B16B1C22782A7062781D460134002AF7D100E02B463D
:4049000000221A7005B0BDE8F08F00BFFFFFEF7F0000E03FB4AE0000B8AE000067666666BCAE000038B505460C460A2902D10D21FFF7F8FF15B12046A84738BD034B1B6851
:404940001BB1591C014A11601C7038BD7CD5FF1F2DE9F04F8DB006460D4693466C1C2978002900F06481252904D03046FFF7DAFF2546F3E7AB1C6878302806D1A87803353F
:40498000302303934FF000080DE02D2806D1A8780335202303934FF0020804E01D46202303934FF000082A2813D1DBF800400BF1040B002C02DA64424FF0020828780135AC
:4049C0000DE004EB84046700C419303C2878013500E00024A0F13003DBB2092BF1D92E281AD16B1C28782A280ED1DBF800700BF1040B6878023511E007EB87077B00C718B1
:404A0000303F2878013501E01D460027A0F13003DBB2092BF0D901E04FF0FF376C2803D148F0040828780135002800F00081A0F14503332B00F28F80DFE803F0558D8D8D19
:404A40008D8D8D8D8D8D8D8D8D8D8D8D8D8D8D1D8D8D8D8D8D8D8D8D8D92201A55558D8D8D8D8D8D8D8D958D8D8D288D1A8D8D1D4FF00A0E79E04FF0100E76E09BF80010BB
:404A80000BF1040B3046FFF74DFF67E7DBF800A00BF1040B504605F071FA814605E003993046FFF73FFF09F1010918F0020F08D1A145F4D305E00AF1010A3046FFF732FF54
:404AC00047469AF8001049B107F1FF38002FF2D104E020213046FFF725FFB94609F10107A145F6D33AE70BF1070323F0070303F1080BD3E900230190009704A8FFF7ECFD2A
:404B000004A805F03BFA074604E003993046FFF709FF013718F0020F04D1A742F5D30DF1100801E00DF1100808F1010998F800103046FFF7F7FE98F80130C846002BF3D1B8
:404B400004E020213046FFF7EDFE474607F10108A742F6D302E701463046FFF7E3FEFDE64FF0020E01E04FF0080E18F0040F04D0DBF800300BF1040B0AE0642804D1DBF879
:404B800000300BF1040B03E0DBF800300BF1040B642804D1002B02DA5B4248F001089C46002100E03946BCFBFEF20EFB12C3DBB29446092B06D9782801D1272700E0072754
:404BC0003B44DBB24F1C30330DF13009894409F8203C0AB11F2FE5D918F0010F05D00CAB1F442D2307F8203C8F1CB94605E003993046FFF797FE09F1010918F0020F01D1E6
:404C0000A145F4D3013F0CAB3B4413F8201C3046FFF788FE002FF5D104E020213046FFF781FEB94609F10107A145F6D396E60DB0BDE8F08F0FB400B583B004AA52F8041B44
:404C40000192044B1868FFF783FE03B05DF804EB04B0704700D7FF1F10B5012003F0DCF828B1002003F0E4F8012003F0E1F8174B00241C605C600F2C26D8012003F0CCF8D3
:404C80000028F8D0002003F0D3F80346002801DA00F10F0343F30F130C490A6813440B60012003F0C5F80346002801DA00F10F0343F30F1305494A6813444B600134E4B2B1
:404CC0000A2002F0FDFCD6E710BD00BF80D5FF1F38B5012003F0A0F800287ED0002003F0A7F8414C2368C01A00B203F0B3F83F4D85FB0023C017C0EBA300A060A168002063
:404D000001F0D0F8012003F093F86368C01A00B203F0A0F885FB0035C017C0EBA500E060E168012001F0BEF8022003F081F803F08DF803F0F5FD2AA3D3E9002303F056FE2E
:404D400004F02CF92061032003F072F803F07EF8274D85FB00230344C017A0EB231081306061042003F064F803F070F885FB00350544C017A0EB25108130A06163694A2BF5
:404D800004DCA3694A2B03DD012302E0012300E0002313B10122144B1A77134B5B69542B05DC114B9B69542B03DD012302E0012300E000231BB101220B4B5A7738BD0A4AE1
:404DC0005269402A04DC084A9269402A00DC01231BB1054B00225A771A7738BDAFF300805C8FC2F5281C314080D5FF1F4FECC44E43082184012926D12A4B98420FD92A4B6C
:404E00001B6A40F6B732934204D90022264B5A62012070470133244A136200207047224B5B6A42F20F72934204D91F4B00201862586270471C4A126A002A2CD001331A4A59
:404E4000536200207047022927D1164B98420FD9154B9B6A40F6B732934204D90022124BDA620120704701330F4A9362002070470D4BDB6A42F20F72934204D90A4B0020C5
:404E80009862D8627047084A926A42B10133064AD3620020704700207047002070470020704700BF9F86010080D5FF1F2DE9F04FB3B000242994ADF89440ADF89640ADF827
:404EC0009C40ADF88440ADF88640ADF85440ADF8564010940F94FEF7D5FD62B602F016FAB749B848FEF760FD21460F2909D84C1CE4B22AAB03EB41012046FEF787FD21464B
:404F0000F3E701F09BF802F09DFE00F0AFFE01F0DFFF002000F01EFE00F07CFF02F056F8002000F0EBFE02F087F802F0BBF802F05BFF02F06DFFFFF78FFE01F0E1FC02F047
:404F400077FCA14AA14B1A60A148FFF773FE0024ADF88440ADF85440ADF84440642002F0AFFB02F0D3F996499648FEF71DFD0F2C0FD82146974B03EB44024FF4806010862C
:404F80000134E4B2303303EB41012046FEF73EFDEDE700252F462E462C468F4B1B7813F0FF0F04D000228C4B1A700136F6B28B4B1B7813F0FF0F04D00022884B1A700137F0
:404FC000FFB2FEF713FD012801D16B1CDDB2092E04D9092F02D902F0A7F90224092D02D901F044F80124002CD7D07D48FFF722FE012C05D0022C07D17A48FFF71BFE06E03B
:405000007948FFF717FE02E07848FFF713FE7848FFF710FE6F4B1B8F9BB20A93022C04D101226C4B83F8502003E00022694B83F85020FDF75DFE02F083FB0021032002F088
:405040005FFB4FF0000B5F46CDF824B0CDF810B05D46D946CDF81CB0DA46CDF80CB0CDF818B0CDF82CB0CDF808B0CDF814B000E0374602F065FB01F0F9FA10B1FEF726FD35
:405080000E9040F6B8310EA8FEF714FD08B1012600E00026BE4202D00EB900F017FCFDF733FFFFF715FE00F01DFC4A4B93F85130DBB20B9A9A4201D04FF0010B454B93F8D7
:4050C0005130DBB20B93022C40F0AC80424B1B7813F0FF0F10D000223F4B1A70454B188825AA012100B2FEF71FFD012225A90846FEF7C4FD01230393384B1B7813F0FF0F79
:4051000010D00022354B1A703B4B188825AA022100B2FEF709FD022225A90846FEF7AEFD01230393354B1B7813F0FF0F1CD00022324B1A70324B1B889BB2B3F5AF6F08D3BD
:405140002F4B1B889BB2B3F5C86F05D24FF0010A04E04FF0000A01E04FF0020A079B9A450AD1CDF81CA00BE0069B4BB1194B83F850A00023069303E0CDF81CA0012306935B
:40518000204B1B7813F0FF0F06D11F4B1B7813F0FF0F03D0012302E0012300E00023002B38D00023174A1370174A1370ADF89430ADF8963056BB0222064B83F8502029E08F
:4051C000E9730000BD7300004D78000000D7FF1FC0AE000080D5FF1F44D8FF1F45D8FF1FCCAE0000DCAE0000E4AE0000ECAE0000F4AE000048D8FF1F46D8FF1F40D8FF1F91
:4052000042D8FF1F4BD8FF1F4AD8FF1F0022A84B83F85020A74B1B7813F0FF0F02D00022A44B1A70012C40F09780FEF7DFFB012845D100230F2B09D85F1CFFB29E4901EBF3
:4052400043013846FEF7E2FB3B46F3E7984F388E25AA012100B2FEF7B1FC788E25AA022100B2FEF7ABFCF88E25AA042100B2FEF7A5FC388F25AA052100B2FEF79FFC788F40
:4052800025AA062100B2FEF799FC012225A90846FEF7F4FC022225A90846FEF7EFFCFEF715FC29903B8F9BB20A9A9A4201D0012302937F4B1B8F9BB20A9301230593FEF789
:4052C000AFFB38B94FF47A7129A8FEF7F3FB18B9002302E0012300E0012353B126B90222734B83F8502037E00022714B83F8502032E0029A002A2FD06D4A128F92B2B2F589
:40530000307F05D200236A4A82F85030029323E0674A128F92B2B2F5307F06D3644A128F92B2B2F5A86F00D2012333B10122604B83F85020002302930EE05D4B1B8F9BB290
:40534000B3F5A86F06D30222594B83F850200023029301E000230293BBF1000F1BD0544B93F85130DBB2012B02D0022B07D00DE001224F4B83F850204FF0000B0BE00222C3
:405380004B4B83F850204FF0000B04E04FF0000B474B83F850B0464B93F85030012B0DD1012C04D10022424B83F852204FE0022C4DD102223E4B83F8522048E0022B28D140
:4053C0004EB100223A4B83F850203C4B40F2DC521A805A8018E04FF47A713948FEF76AFB28B10023ADF89430ADF896300CE0334F388825AA012100B2FEF796FB788825AACA
:40540000022100B2FEF790FB0122294B83F852201DE0012C10D10027ADF89470ADF89670DFF88C80B8F83A0025AA062100B2FEF7C5FB88F852700AE0022C08D10023ADF8E8
:405440009430ADF896300222194B83F8522002F033FD20B909F101095FFA89F90DE0BDF98A30C72B04DD012C05D10135EDB204E00025A94601E00025A946B9F1020F0AD91B
:405480000023ADF89430ADF89630FEF71FFB0F900123089318E0022D14D90023ADF89430ADF89630FEF712FB0F90012308930BE080D5FF1F4CD8FF1FB0D5FF1FD4C0FF1F28
:4054C000D4D5FF1F00230893B44B1B7813F0FF0F13D00022B14B1A70B14FB86801210028B8BF4042FFF786FC0490F86802210028B8BF4042FFF77EFC0990049B0BB9099BD6
:40550000E3B10024ADF89440ADF89640204600F021FB204600F0F2FB049B33B1A148FFF789FB012002F09CFC05E09F48FFF782FB012002F095FC02F003F9FCE7984B5B7F08
:4055400013F0FF0F29D1964B1B7F13F0FF0F1BD0BDF9943003EBD3735B10ADF88430BDF9963003EBD3735B10ADF886304FF4FA718E48FEF7B1FA30B302F07EFCB0FA80F034
:40558000400902F06DFC1EE021AF25AB0FCB87E80F00002002F064FC15E0C8218348FEF79BFA30B102F068FCB0FA80F0400902F057FC0023ADF89430ADF8963021AF25AB36
:4055C0000FCB87E80F00764B93F852300BB1022B25D1059B0BB9039B7BB31DAF21AB0FCB87E80F00BDF98400FEF784FAADF87400002219A93846FEF703FC4FF496730122FB
:4056000015A919A8FEF78CFB4FF49673022215A919A8FEF785FB0023039305930DE04FF49673012215A921A8FEF77AFB4FF49673022215A921A8FEF773FB4FF00908CDF8FE
:4056400004800A2700970323012211A915A8FEF729FFCDF8048000970323022211A915A8FEF720FFBDF9440000F074FABDF9460000F044FB02F014FB10B9FEF727FA109049
:4056800002F006FB10B9FEF721FA109041F2883110A8FEF70FFA18B1002002F0F5FB04E0109B13B1012002F0EFFB41F288310FA8FEF700FA18B1002002F0F2FB04E00F9BD9
:4056C00013B1012002F0ECFB394B1B78DBB2022B7FF4CEAC0022364B1A7002F0E1FA68B9BDF984103348FFF7A5FA00F0FDFA01463148FFF79FFA002000F02CFA02F0C8FA99
:40570000B8B9BDF984102D48FFF794FA00F0C0FB01462948FFF78EFA0DF13701012000F02DFB9DF837102648FFF784FA002000F0E5FA31462348FFF77DFA194F97F8501012
:405740002148FFF777FA796D2048FFF773FA0E991F48FFF76FFA97F85230012B11D0002B42D0022B51D11B48FFF764FABDF994101948FFF75FFABDF996101848FFF75AFACA
:4057800043E01748FFF756FABDF99C30BDF99620BDF994101348FFF74DFA36E04FD5FF1F80D5FF1F00AF000014AF0000D8D5FF1F4ED5FF1F28AF000040AF000054AF00002F
:4057C0006CAF00007CAF00008CAF000098AF0000B4AF0000CCAF0000D8AF0000E4AF0000F0AF0000FCAF00002B4B198E5A8E92B289B22A48FFF71EFABDF99C30BDF99620AD
:40580000BDF994102648FFF715FABDF944102548FFF710FA204FB9682348FFF70BFA002000F06CFB01462148FFF704FA04992048FFF700FADFF890804046FFF7FBF9BDF911
:4058400046101C48FFF7F6F9F9681B48FFF7F2F9012000F053FB01461448FFF7EBF909991348FFF7E7F94046FFF7E4F939691348FFF7E0F908991248FFF7DCF97969BA6945
:405880003B7F787F00900F48FFF7D4F94046FFF7D1F9FFF7EDBB00BF80D5FF1F18B00000FCAF000034B0000044B0000058B0000064B0000074B0000084B0000098B0000070
:4058C000A8B00000B4B00000FCAE000008B50A22024B1A700248FFF7ADF908BDE8D5FF1FD0B0000038B5964B1B780A2B00F22681DFE813F02C0061006D008E009900B800AA
:40590000C200E100EB001C010B008D4B202203F8042F01223F212820FDF75AFF10F1020FC0F20C81B0F1FF3F09DD022840F00681834C00232370FEF7C9F8606238BDFEF773
:40594000C5F87F4B586201221A7038BD7D4B0021196059609960D96019617B4B04222820FDF71AFF10F1020FC0F2E880B0F1FF3F1ADD032840F0E280714B1B79A02B40F032
:40598000DD806F4B5B79FB2B40F0D8806C4B9B79322B40F0D3806A4BDB790F2B40F0CE800222674B1A7038BDFEF790F8644B586201221A7038BD4FF47A716448FEF77AF8C4
:4059C000002800F0BB8000225D4B1A7038BD5C4B002203F8042F01223D212820FDF7F8FE10F1020FC0F2AA80B0F1FF3F09DD022840F0A480524C03232370FEF767F86062C3
:405A000038BDFEF763F84E4B586201221A7038BD13214E48FEF74EF8002800F08F800422474B1A7038BD464B022203F8042F01223B212820FDF7CCFE10F1020F7EDBB0F155
:405A4000FF3F08DD022879D13D4C05232370FEF73DF8606238BDFEF739F8394B586201221A7038BD13213948FEF724F8002865D00622334B1A7038BD314B082203F8042F48
:405A800001223D212820FDF7A3FE10F1020F55DBB0F1FF3F08DD022850D1294C07232370FEF714F8606238BDFEF710F8244B586201221A7038BD07212448FDF7FBFF0028DB
:405AC0003CD008221E4B1A7038BD214B1A2214212820FDF761FE10F1020F2FDBB0F1FF3F1DDD03282AD1174A194B196811609988918053F80C5F5C689868C2F80650C2F8C8
:405B00000A40C2F80E009B8953820D4C012384F82830FDF7DBFF60620923237038BDFDF7D5FF074B586201221A7038BD0A210748FDF7C0FF10B10822014B1A7038BD00BFAD
:405B4000E8D5FF1F20D7FF1FECD5FF1F0CD6FF1F04D7FF1F10B5041E06DDA0B201F05CF9002001F05FF910BD002C07DA002001F053F9604280B201F055F910BD4FF47A704E
:405B800001F04AF94FF47A7001F04CF910BD00BF10B582B0C00200F4F0440C43FDF796FF0190002002F05CF802F004F8204601F0EFFF04E0642101A8FDF77CFF20B901F094
:405BC000DBFF10F0010FF5D0012002F049F802B010BD00BF30B583B00D466FEA00706FEA5044A4B2FDF772FF0190002002F038F801F0E0FF204601F0CBFF04E0642101A8B2
:405C0000FDF758FF60B901F0B7FF10F00104F5D001F0CAFF0446012002F022F82C700124204603B030BD00BF38B5054601460020FFF7D0FF0446691C0120FFF7CBFF204064
:405C4000C4B2A91C0220FFF7C5FF0440E91C0320FFF7C0FF0440291D0420FFF7BBFF0440691D0520FFF7B6FF204038BD38B5002002F01EF80A2001F023FD012002F018F82C
:405C8000012001F01DFD174C2046FFF7CDFFA178032565F3C501A170E378012262F38713DBB243F00703E370237943F070032371637903F0270362F301036371C9B202209A
:405CC000FFF766FFE1782846FFF762FF21790420FFF75EFF61790520FFF75AFF2046FFF7A3FF38BD14D6FF1F10B5034C21460020FFF770FF207810BD14D6FF1F10B5041E7D
:405D000006DDA0B201F006F9002001F009F910BD002C07DA002001F0FDF8604280B201F0FFF810BD4FF47A7001F0F4F84FF47A7001F0F6F810BD00BF10B582B0C00200F473
:405D4000F0440C43FDF7C2FE0190002001F0BCFF01F030FF204601F01BFF04E0642101A8FDF7A8FE20B901F007FF10F0010FF5D0012001F0A9FF02B010BD00BF30B583B09D
:405D80000D466FEA00706FEA5044A4B2FDF79EFE0190002001F098FF01F00CFF204601F0F7FE04E0642101A8FDF784FE60B901F0E3FE10F00104F5D001F0F6FE04460120E6
:405DC00001F082FF2C700124204603B030BD00BF38B5054601460020FFF7D0FF0446691C0120FFF7CBFF2040C4B2A91C0220FFF7C5FF0440E91C0320FFF7C0FF0440291D75
:405E00000420FFF7BBFF0440691D0520FFF7B6FF204038BD38B5002001F02EFF0A2001F04FFC012001F028FF012001F049FC174C2046FFF7CDFFA178032565F3C501A17083
:405E4000E37843F0C703E370237943F070032371637963F03F0303F0E703012262F301036371C9B20220FFF767FFE1782846FFF763FF21790420FFF75FFF61790520FFF7E4
:405E80005BFF2046FFF7A4FF38BD00BF1CD6FF1F10B5034C21460020FFF770FF207810BD1CD6FF1F80B9124BB3F90030114A42F823100133104A134003D5013B63F01F03AC
:405EC00001330B4A13807047094BB3F9023003F12000084A42F820100133074A134003D5013B63F01F030133014A5380704700BF24D6FF1F40D7FF1F1F00008030B40024B0
:405F000000251C4BC3E9004578B1002320E01A4A52F82340174AD2E90001001941EBE471C2E9000101339BB200E000231F2BEED910E003F12001104A52F821400D4AD2E973
:405F40000001001941EBE471C2E9000101339BB21F2BEED9074BD3E90023002A73F1000102DA1F3243F10003500940EAC36030BC704700BF38D7FF1F40D7FF1F08B501F00C
:405F8000B5F810F0040F03D00122094B1A7008BD01F0B8F8A0F54D739BB240F21452934204D8044B18800122034B1A7008BD00BF4BD8FF1F48D8FF1F44D8FF1F08B501F02F
:405FC0000FF910F0040F03D00122094B1A7008BD01F012F9A0F54D739BB240F21452934204D8044B18800122034B1A7008BD00BF4AD8FF1F46D8FF1F45D8FF1F08B501F03B
:406000000BFD10F0040F03D00122094B1A7008BD01F00EFDA0F54D739BB240F21452934204D8044B18800122034B1A7008BD00BF4CD8FF1F42D8FF1F40D8FF1F08B501F001
:40604000ABF8074801F088FC01F020F9054801F0B5FC01F037FD044801F05CFD08BD00BF7D5F0000BD5F0000FD5F000008B501F02FF801F07FFC01F0A5F801F0ADFC01F0D3
:40608000BDFC01F055FD08BDFEE700BFF0B40022174611E050F82760F3B226F0FF0608E001EB420511F812406D78A5550132013BDBB2002BF4D10137292FEBD9F0BC7047E0
:4060C00008B50A46002103F019FD08BD38B50022404B1A80582202331A70052202331A801C2202331A700B2202331A8018233A4A13701721023211801922384802700230AA
:40610000018037490B7002310A80364A13701D2102321180023213700222334B1A7008224FF040231A7043F2133203F212231A80023B01221A701B7843F2C82404E04FF4E4
:40614000F07002F019F8013C24B1284B1B7813F0800FF4D114B90120FFF796FF4FF0402348221A702021224A11700024A2F5FE72148040F20F7102F21E22118049221A70E5
:4061800041F2512203F508731A8019250CE0194B1B7803F0010343EA440404F003044FF4F07001F0E9FF013D0DB1032CEFD1124B07221A70002211490A7048200231087024
:4061C0001A700222033B1A700D4A137843F07F03137038BD804000408A4000408E400040924000409640004000430040104200400042004025420040044000400640004092
:40620000A2430040F8B51A4B1B78DBB2194E3478E4B2194F3D78EDB203F00701174A11701B090132137044F00303337045F003033B70C022124B1A70322240331A7080226C
:4062400003F2B4731A70F02203F21F231A70202203331A7006230B4A1370043213700A2001F044FA3D7034704422074B1A70F8BDCF010049F8460040F94600406E5800402C
:406280000D510040415B00407658004008B503F0BFFB08BD38B572B600240CE0494D630019194A0011462A44084691882858FFF707FF0134E4B2052CF0D900240BE0414888
:4062C000A20011194B0003449A8D996A586AFFF7DDFF0134E4B2012CF1D93B494FF09040FFF7D4FE04213948FFF7EAFE042238493848FFF7CBFF384B384A136002F59052A9
:40630000136002F554522B32137843F0020313701032137843F002031370314C237843F040032370A2F58632513A137843F01003137008222B492C48FFF7A8FF0A222B4984
:406340002B48FFF7A3FF05222A492B48FFF79EFF08222A492A48FFF799FF0A2229492A48FFF794FF0A2229492948FFF78FFF0A2228492948FFF78AFF082228492848FFF71B
:4063800085FF0A2227492848FFF780FF0A2227492748FFF77BFF274A137843F008031370254D61232B70FFF791FE81232B700122224B1A70FFF726FF0E2221462048FFF721
:4063C00065FF38BDE4B00000A8000048007600406412004808760040040404C4D8080140A0430040FC1100480251004004120048C051004010120048CB51004018120048AB
:40640000F251004020120048105100402C12004820510040381200483051004044120048425100404C12004850510040581200486051004022430040004800400400084020
:40644000B043004008B503F0B5FA03680C2B00D1FEE7FEE708B5094B1A681044084BC31AB3F5805F02DC054B186005E003F0A2FA0C2303604FF0FF32104608BDD8C0FF1FC2
:4064800008E5FF1F08B5104E104D16E029686B68AC68002204E051F8040B43F8040B0432A242F8D1E868002203E0002143F8041B04328242F9D11035013E002EE6D103F070
:4064C0007FFAFEF7F3FCFEE70100000094B1000008B5114A114B1A60114A136843F40073136000230AE0032B03D80E4A52F8231000E00D490D4A42F8231001332F2BF2D9F5
:406500000B4B1A780B4B1A70084A0B4B1A60FFF7C1FE00F0F3FF08BD0004FA050CED00E014ED00E0000000004564000000C0FF1FBC760040C0C0FF1F08ED00E010B51249CC
:40654000012001F017F90121084601F027F900240E4B1C7071220E4B1A70202202331A700C49022001F006F92146022001F016F90622094B1A70472210331A70022203F2B3
:4065800053131A7010BD00BF7D67000028D6FF1F84640040196800002564004010B501F0F3FD04460D4A137843F0200313700232137843F010031370094A0223136009497D
:4065C0000B7843F010030B70042307490B60136000F086FF204601F0DBFD10BD9464004000E100E09865004080E200E008B5054B5B7823B9FFF7A2FF0122024B5A70FFF796
:40660000CDFF08BD28D6FF1F0222134B1A60134A53889BB2918889B2927912F0FF0F01D18B4212D00E4AD05CC0B201339BB2B3F5806F00D30023094A5380937913F0FF0FF5
:4066400006D00022054B9A7102E0064B1878C0B20222054B1A60704780E100E028D6FF1F50DCFF1F4664004000E100E00222174B1A60174B5A8892B29B889BB29A4207D1EF
:40668000134B9B7913F0FF0F1BD04FF4806019E00F4B5A8892B29B889BB29A4207D20C4A908883B2508880B2181A80B20AE0084A908883B2508880B2181A00F5806080B2CE
:4066C00000E000200222034B1A60704780E100E028D6FF1F00E100E010B4194B59891B899BB2994205D25A1E914214BF0022012206E0CA1A40F2FF34A24214BF002201229E
:40670000002AEAD1994207D10E4B1B7813F0040F02D10D4B187010E0B1F5806F00D300210A4B58540131064B5981064B1B7813F0020F02D00422064B1A6010BC704700BF38
:4067400028D6FF1F686500404865004050D8FF1F00E200E0084B5B7833B97047305DFFF7BBFF0134A4B203E070B50D4606460024AC42F3D370BD00BF28D6FF1F1E4B1B78E7
:40678000DBB213F01E0F05D01C4803F01E0201780A43027003F0200303F0FF02002B28D0174B1978C9B2174B1B889BB21648C154164B1B7813F0FF0F02D00121144B197057
:4067C00010490B889BB201339BB20B800B889BB2B3F5806F02D300210A4B1980094B198889B20C4B1B889BB2994202D10121074B1970002AC2D170476664004028D6FF1F3D
:40680000466400402CD6FF1F50DCFF1F2ED6FF1F2FD6FF1F2AD6FF1F15E0114B1B889BB2B3F5806F02D300220D4B1A800C4A13889BB20C49CB5CDBB20B490B7013889BB2E2
:4068400001339BB21380064B1B889BB2074A1288934204D0064B1B7813F0040FDDD0704730D6FF1F50D8FF1F4865004032D6FF1F6865004038B50222114B1A7081220E3B64
:406880001A70082202331A700F2511331D70002401331C704FF400420A4B1A600721284600F07CFF0849284600F064FF1022074B1A70074B1C70074B1C70074B1C7038BD78
:4068C000D649004080E100E02969000050E0FF1F56E0FF1F58E0FF1F54E0FF1F08B501F053FC064A137843F0040313701032137843F00403137001F04BFC08BDA5430040D8
:4069000008B5074B1B7823B9FFF7B4FF0122044B1A70FFF7E3FF4FF40042024B1A6008BD35D6FF1F00E100E038B5A54B1C78A54B1B7813F0400F00F03A81E4B214F0010FC6
:4069400000F01D819F4B1B78453B052B00F21481DFE813F006008200120112010600DF0004F0DF0504F00A04082C42D1954B1B78DBB2452B35D1944B1B7813F0FF0F10D07E
:40698000924B1B681B78DBB2914A137004228C4B1A7001228F4B1A7046228A4B1A702C46EDE08D4B1B7813F0020F0DD08B4A137843F00A0313706022824B1A704FF4004208
:4069C000874B1A602C46DAE0864A137843F0100313701022844B1A700422023B1A702C46CDE00022764B1A704A22764B1A702C46C5E00A2C2BD1794A137843F0A003137050
:406A0000754B1B7813F0020F14D06E4B1B7813F0080F01D0092300E00A23704A11780B4313706022674B1A704FF400426C4B1A602C46A4E06B4A137843F0100313701022E2
:406A4000694B1A700422023B1A702C4697E0002000F034FE2C4692E014F0020F36D15D4B1A78D2B2584B1B78DBB29A4210D2594A1378DBB255490968CB5CDBB254490B70EB
:406A800004214F4B197013780133DBB2137076E0514B1B7813F0020F0CD0504A137843F00A0313706022474B1A704FF400424C4B1A6064E04B4A137843F0100313701022CF
:406AC000494B1A700422023B1A7058E0424B1B7813F0020F0CD0414A137843F09A0313706022384B1A704FF400423D4B1A6046E03C4A137843F01003137010223A4B1A7083
:406B00000422023B1A70354A137843F09003137035E0364A1378DBB2354908682C490978C9B2C15413780133DBB213701278D2B2304B1B78DBB29A4203D21022204B1A70A4
:406B40001DE0254B1B7813F0020F0CD0234A137843F00903137060221A4B1A704FF400421F4B1A600BE01F4A137843F0100313700022134B1A7002E0002000F09FFD14F04D
:406B8000200F1CD00F4B1B7813F0080F01D0012300E00223114A11780B431370114A137803F0EF0313701022064B1A7038BD054B1B7813F0100F02D11022024B1A7038BDDE
:406BC000D749004050E0FF1F57E0FF1F5CE0FF1FD849004054E0FF1F55E0FF1F56E0FF1F80E100E0D6490040D949004058E0FF1F60E0FF1F64E0FF1F002948D070B40C460F
:406C000026490978C9B2102906D12549097811F0080F11D1002112E020490978C9B260290CD14FF400451F490D601F4D297801F0F7012970002102E0012100E0022149BBFA
:406C40004526164D2E700026184D2E70184D2A70184A1460184A1370134C227802F0FD0222704200D2B21548027013F0010F06D012220B4B1A700422023B1A7002E00122C5
:406C8000074B1A704FF400420D4B1A6002E0022108467047084670BC704700BF50E0FF1FD949004080E200E056E0FF1F54E0FF1F57E0FF1F5CE0FF1F55E0FF1FD8490040AC
:406CC00000E100E000294AD070B40C4627490978C9B2102906D12649097811F0080F11D1002112E021490978C9B260290CD14FF4004520490D60204D297801F0F7012970E7
:406D0000002102E0012100E0022159BB4926174D2E700026194D2E70194D2A70194A1460194A1370144C227802F0FE0222704200D2B242F001021548027013F0010F06D08E
:406D400012220B4B1A700422023B1A7002E00122074B1A704FF400420D4B1A6002E0022108467047084670BC704700BF50E0FF1FD949004080E200E056E0FF1F58E0FF1F44
:406D800064E0FF1F60E0FF1F55E0FF1FD849004000E100E04FF40042084B1A60084B1878C0B2084B1B7813F0400F01D040F004004FF40042044B1A60704700BF80E100E0B5
:406DC00056E0FF1F50E0FF1F00E100E04FF40043044A1360044A107800211170034A1360704700BF80E100E056E0FF1F00E100E0024A137843F08003137070477564004005
:406E0000014B1880704700BF0A6A0040014B1880704700BF8A6A0040014B1880704700BF4A6A0040014B1880704700BF6A6A0040014B1870704700BF86650040014B1878A9
:406E4000704700BF66650040014B188880B27047AA6A004008B501E0FFF7F6FFFFF7EEFF10F0100FF8D108BD10B5174A137803F0C00343F01203137002F59072137843F066
:406E800001031370114C237843F0010323704FF47A70FFF7B5FF4FF47A70FFF7B7FF0020FFF7BAFF0020FFF7BDFF0020FFF7C0FF01F06AF9237843F01003237001F068F949
:406EC000FFF7C8FF10BD00BF756400409665004008B5054B1B7823B9FFF7C6FF0122024B1A70FFF785FF08BD36D6FF1F024A137843F08003137070477D640040014B18808F
:406F0000704700BF1C680040014B1880704700BF9C680040014B1880704700BF5C680040014B1880704700BF7C680040014B1870704700BF8C640040014B1878704700BFD1
:406F40006C640040014B188880B27047BC68004008B501E0FFF7F6FFFFF7EEFF10F0100FF8D108BD08B5174A137803F0C00343F0120313702132137843F0010313700132BA
:406F8000137843F0010313704FF47A70FFF7B6FF4FF47A70FFF7B8FF0020FFF7BBFF0020FFF7BEFF0020FFF7C1FF01F0EDF8064A137843F01003137001F0EAF8FFF7C8FF57
:406FC00008BD00BF7D6400409C64004008B5054B1B7823B9FFF7C6FF0122024B1A70FFF785FF08BD37D6FF1F084A137843F060031370A2F5A652133A137843F004031370F7
:407000001032137843F004031370704777580040054B1A7802F0FC021A701A7800F0030010431870704700BF5C58004008B50120FFF7EEFF08BD00BF08B5054B1B7823B919
:407040000122034B1A70FFF7F1FFFFF7CDFF08BD38D6FF1F084A137843F060031370A2F5A652133A137843F0010313701032137843F001031370704777580040054B1A7836
:4070800002F0FC021A701A7800F0030010431870704700BF5858004008B50120FFF7EEFF08BD00BF08B5054B1B7823B90122034B1A70FFF7F1FFFFF7CDFF08BD39D6FF1F3A
:4070C000024A137843F080031370704779650040024A137803F07F031370704779650040014B1870704700BF8B650040014B1878704700BF6B650040014B1880704700BFD1
:40710000146A0040014B188880B27047946A0040014B1880704700BF546A0040014B1880704700BF746A004008B501E0FFF7EAFFFFF7DCFF10F0400FF8D108BD08B5144A68
:40714000137803F0F80343F001031370137803F0FC0343F010031370FFF7E6FF4FF6FE70FFF7D6FF0020FFF7C7FF1C20FFF7B8FFFFF7BCFF0120FFF7D1FF01F005F8054AA3
:40718000137843F01003137001F002F808BD00BF796500409B65004008B5054B1B7823B9FFF7CCFF0122024B1A70FFF789FF08BD3AD6FF1F024A137843F08003137070473F
:4071C0007B650040024A137803F07F03137070477B650040014B1870704700BF89640040014B1878704700BF69640040014B1880704700BF10680040014B188880B270470C
:4072000090680040014B1880704700BF50680040014B1880704700BF7068004008B501E0FFF7EAFFFFF7DCFF10F0400FF8D108BD08B5144A137803F0F80343F001031370D9
